:04000000B3EF3FF02B
:107F5C00CF886DADAAA7E78CEFAE5C0EF66E7F0EE8
:107F6C00F76E000EF86E00EE01F010EE0AF009004C
:107F7C00F5CFEEFFE550E150FAE10001DAEF3FF00A
:107F8C00000E896EC00E926E000E8A6E9368000E03
:107F9C008B6E000E946E000E8C6E000E956E070E9E
:107FAC00B46E6D966F961200C6EC3FF0800E826E2A
:107FBC00000E0D6E0A0E0D6402D000EF00F00D5095
:107FCC00010D010EF324D96E000EF420DA6EDF5091
:107FDC00836E000E0C6E310E0C6401D009D0340E81
:107FEC000B6EF20EE82EFED70B2EFCD70C2AF3D715
:047FFC000D2AE0D793
:020000040020DA
:08000000FFFFFFFFFFFFFFFF00
:020000040030CA
:0E000000000C1F1EFF8181FF0FC00FE00F409C
:00000001FF
