:040000000BEF00F012
:100008001F82FACF01F0FBCF02F00DED00F08BEF6D
:1000180000F00600E9CF03F0EACF04F0E1CF05F0E5
:10002800E2CF06F0D9CF07F0DACF08F0F3CF09F026
:10003800F4CF0AF0F6CF0BF0F7CF0CF0F8CF0DF0B5
:10004800F5CF0EF081A205D00B0E1E6005D01E2A3A
:1000580003D01E50D8A41E06F2920EC0F5FF0DC0A4
:10006800F8FF0CC0F7FF0BC0F6FF0AC0F4FF09C089
:10007800F3FF08C0DAFF07C0D9FF06C0E2FF05C0DA
:10008800E1FF04C0EAFF03C0E9FF02C0FBFF01C0B3
:10009800FAFF1F92110073EC00F082808368000E53
:1000A8000F6E030E0F6401D0FAD71E50010D100E0B
:1000B800F324D96E000EF420DA6EDF50836E0F50F1
:1000C800010D1A0EF324D96E000EF420DA6EDF50FB
:1000D800826E0D0EE82EFED700F00F2AE2D76D963D
:1000E8006F86000E896EC00E926E000E8A6E93683F
:1000F800000E8B6E000E946E000E8C6E000E956EC8
:10010800F28EF29CD08EF292F288F18C12001E6A66
:10011800420EF66E010EF76E000EF86E00EE10F04D
:1001280010EE0EF00900F5CFEEFFE550E150FAE1D0
:100138001F901F9200014FEF00F0CF8267A7AAAD72
:08014800ED86EFAF0102048017
:020000040020DA
:08000000FFFFFFFFFFFFFFFF00
:020000040030CA
:0E000000000C1F1EFF8181FF0FC00FE00F409C
:00000001FF
