:040000000BEF00F012
:100008003282FACF01F0FBCF02F0E0ED00F07DEF95
:1000180001F098EC01F031500F6E106A0FBE100617
:10002800000E126E0A0E116E3BEC01F00F502F6E8F
:100038002F500A0DF350000831242E6E30500F6EE9
:10004800106A0FBE1006000E126E0A0E116E3BECFF
:1000580001F00F502C6E2C500A0DF350000830247C
:100068002D6E000E1D6E030E1D6401D02CD01D5088
:10007800010D2C0EF324D96E000EF420DA6EDF5039
:10008800176E1750010D1E0EF324D96E000EF420C2
:10009800DA6EDF50836E020E1D18D8B483881D50A7
:1000A800010D280EF324D96E000EF420DA6EDF500D
:1000B800826E0B0E176E620EE82EFED7172EFCD737
:1000C80000D01D2AD0D781B40FD03150D8A403D086
:1000D8003050D8B409D0808AF298F294F28A0B0E84
:1000E800D76EDC0ED66ED58ED5AE95D73150D8A446
:1000F80092D73050D8A48FD7D59E809A000E186E0C
:10010800090E186401D087D7000E1B6E030E1B64FE
:1001180001D016D01EC083FF1B50010D280EF324FA
:10012800D96E000EF420DA6EDF50826E0B0E176E59
:10013800620EE82EFED7172EFCD700D01B2AE6D772
:10014800000E196E090E196401D009D0340E176E0D
:10015800F20EE82EFED7172EFCD7192AF3D7000E79
:100168001C6E030E1C6401D016D0000E836E1C504A
:10017800010D280EF324D96E000EF420DA6EDF503C
:10018800826E0B0E176E620EE82EFED7172EFCD766
:1001980000D01C2AE6D7000E1A6E090E1A6401D088
:1001A80009D0340E176EF20EE82EFED7172EFCD7A4
:1001B8001A2AF3D7182AA4D70600E9CF03F0EACF02
:1001C80004F0E1CF05F0E2CF06F0D9CF07F0DACF9F
:1001D80008F0F3CF09F0F4CF0AF0F6CF0BF0F7CF21
:1001E8000CF0F8CF0DF0F5CF0EF0F2A215D081B2D9
:1001F80009D0312A3150800A440FD8A00CD0302AB7
:10020800000E08D031063150800A7F0FD8B003D0D5
:1002180030063B0E316EF292F2A40BD0310631AEAD
:1002280003D030063B0E316E0B0ED76EDC0ED66E49
:10023800F2940EC0F5FF0DC0F8FF0CC0F7FF0BC01D
:10024800F6FF0AC0F4FF09C0F3FF08C0DAFF07C0D1
:10025800D9FF06C0E2FF05C0E1FF04C0EAFF03C002
:10026800E9FF02C0FBFF01C0FAFF32921100000E45
:10027800146E12AE06D0116C121ED8B0122A010EDE
:10028800146E10AE06D00F6C101ED8B0102A010ED6
:10029800141A000E166E000E156E11501210D8B4F6
:1002A8001CD0010E136E04D0D89011361236132AC2
:1002B80012AEFAD7D8901536163611500F5C125078
:1002C8001058D8A005D011500F5E1250105A158042
:1002D800D89012321132132EEDD71450D8B404D05E
:1002E800156C161ED8B0162A15C00FF016C010F0DF
:1002F8001200316A306A2F6A2E6A2D6A2C6A660EDD
:10030800F66E030EF76E000EF86E00EE1EF010EE9D
:100318000EF00900F5CFEEFFE550E150FAE132901A
:10032800329200010DEF00F06D966F86000E896E17
:10033800C00E926E000E8A6E9368000E8B6E000ED1
:10034800946E000E8C6E000E956EF28EF29CD08E1E
:10035800F292F288F18C850ED56ED59E1200CF826E
:0C03680067A7AAADED86EFAF010204808C
:020000040020DA
:08000000FFFFFFFFFFFFFFFF00
:020000040030CA
:0E000000000C1F1EFF8181FF0FC00FE00F409C
:00000001FF
