:040000000BEF00F012
:100008003682FACF01F0FBCF02F001ED01F0F6EFF6
:1000180001F0DBEC01F0000E28EC02F0346E010E6A
:1000280028EC02F0356E3450800A1C0FD8B008D086
:100038003550800A1C0FD8A034BE02D035AE04D08B
:10004800000E346E000E356E828C000E1A6E630E32
:100058001A6401D026D0000E1C6E030E1C6401D059
:100068001ED01C50010D280EF324D96E000EF4206A
:10007800DA6EDF50836E1C50010D2C0EF324D96EFE
:10008800000EF420DA6EDF50826E0B0E196E620ECF
:10009800E82EFED7192EFCD700D01C2ADED71A2A44
:1000A800D6D7829C35500F6E106A0FBE1006000E10
:1000B800126E0A0E116E67EC01F00F50336E33505A
:1000C8000A0DF35000083524326E34500F6E106A52
:1000D8000FBE1006000E126E0A0E116E67EC01F0CC
:1000E8000F50306E30500A0DF35000083424316E32
:1000F800000E1D6E030E1D6401D02CD01D50010D85
:10010800300EF324D96E000EF420DA6EDF50196E2B
:100118001950010D1E0EF324D96E000EF420DA6E6C
:10012800DF50836E040E1D18D8B483881D50010D4E
:100138002C0EF324D96E000EF420DA6EDF50826E96
:100148001A0E196EF80EE82EFED7192EFCD700D01D
:100158001D2AD0D781B41BD03550D8A403D0345031
:10016800D8B415D0D5BE13D034C011F0000EA9EC08
:1001780001F035C011F0010EA9EC01F0808AF29867
:10018800F294F28A0B0ED76EDC0ED66ED58ED5AEF3
:1001980089D73550D8A486D73450D8A483D7D59ECC
:1001A800809AF288F29A000E1B6E020E1B6401D030
:1001B8001BD0828C000E836E838A2CC082FF320E85
:1001C8000FEC02F02DC082FF829C320E0FEC02F081
:1001D8002FC082FF320E0FEC02F02EC082FF320ECB
:1001E8000FEC02F01B2AE1D7000E28EC02F0346E67
:1001F800010E28EC02F0356E55D70600E9CF03F062
:10020800EACF04F0E1CF05F0E2CF06F0D9CF07F04E
:10021800DACF08F0F3CF09F0F4CF0AF0F6CF0BF0FD
:10022800F7CF0CF0F8CF0DF0F5CF0EF0F2B2F2BA2E
:100238001FD081B208D0352A3550800A440FD8A083
:1002480016D0342A12D0350635AE08D03450800A7C
:100258007F0FD8A003D034063B0E356E35AE07D0DD
:100268003450800A7F0FD8B002D0000E356EF2925B
:10027800F2A40BD0350635AE03D034063B0E356EEE
:100288000B0ED76EDC0ED66EF2940EC0F5FF0DC0C5
:10029800F8FF0CC0F7FF0BC0F6FF0AC0F4FF09C057
:1002A800F3FF08C0DAFF07C0D9FF06C0E2FF05C0A8
:1002B800E1FF04C0EAFF03C0E9FF02C0FBFF01C081
:1002C800FAFF36921100000E146E12AE06D0116CB1
:1002D800121ED8B0122A010E146E10AE06D00F6C82
:1002E800101ED8B0102A010E141A000E166E000E39
:1002F800156E11501210D8B41CD0010E136E04D014
:10030800D89011361236132A12AEFAD7D89015366D
:10031800163611500F5C12501058D8A005D0115045
:100328000F5E1250105A1580D89012321132132EC7
:10033800EDD71450D8B404D0156C161ED8B0162AB0
:1003480015C00FF016C010F01200156E000E126ED8
:10035800000E136E000E146E15C0A9FF11C0A8FF81
:10036800A69EA69CA684F2AE03D0F29E010E126E43
:10037800F2AE03D0F29E010E136EF2AC03D0F29CE3
:10038800010E146E550EA76EAA0EA76EA682A6B20F
:10039800FED71204D8B4F28E1304D8B4F28E140423
:1003A800D8B4F28CA694155028EC02F012006D9681
:1003B8006F86000E896EC00E926E000E8A6E93686C
:1003C800000E8B6E000E946E000E8C6E000E956EF5
:1003D800F28EF29CD08EF292F288F18C850ED56E58
:1003E800D59E1200336A326A316A306A680EF66E38
:1003F800040EF76E000EF86E00EE1EF010EE12F00E
:100408000900F5CFEEFFE550E150FAE1369036925B
:1004180000010DEF00F0186E18C00FF0106A000E02
:10042800126E0A0E116E67EC01F00F50186E08D0AC
:10043800340E176EF20EE82EFED7172EFCD71806CC
:100448001850D8B41200F4D70F6E000E106E0FC0FB
:10045800A9FFA69EA69CA680A8CF10F01050120057
:10046800CF8267A7AAADED86EFAF4D82CFEE01022E
:020478000480FE
:020000040020DA
:08000000FFFFFFFFFFFFFFFF00
:020000040030CA
:0E000000000C1F1EFF8181FF0FC00FE00F409C
:00000001FF
