:040000000BEF00F012
:100008003582FACF02F0FBCF03F0E3ED00F08FEF7B
:1000180001F0AAEC01F0000E336E000E346E828CF3
:10002800000E1B6EC70E1B6401D009D0340E1A6E69
:10003800F20EE82EFED71A2EFCD71B2AF3D7829C85
:100048003450106E116A10BE1106000E136E0A0E9F
:10005800126E4DEC01F01050326E32500A0DF35012
:1000680000083424316E3350106E116A10BE110628
:10007800000E136E0A0E126E4DEC01F010502F6E2A
:100088002F500A0DF35000083324306E000E206EF6
:10009800030E206401D02CD02050010D2F0EF32424
:1000A800D96E000EF420DA6EDF501A6E1A50010D68
:1000B800210EF324D96E000EF420DA6EDF50836E21
:1000C800020E2018D8B483882050010D2B0EF3247B
:1000D800D96E000EF420DA6EDF50826E0B0E1A6EA7
:1000E800620EE82EFED71A2EFCD700D0202AD0D7D1
:1000F80081B40FD03450D8A403D03350D8B409D029
:10010800808AF298F294F28A0B0ED76EDC0ED66EC5
:10011800D58ED5AE95D73450D8A492D73350D8A41D
:100128008FD7D59E809A000E1C6E090E1C6401D0D4
:1001380087D7000E1D6E630E1D6401D01ED0000E01
:100148001E6E030E1E6401D016D021C083FF1E5000
:10015800010D2B0EF324D96E000EF420DA6EDF5059
:10016800826E0B0E1A6E620EE82EFED71A2EFCD780
:1001780000D01E2AE6D71D2ADED7000E1F6E030EFA
:100188001F6401D016D0000E836E1F50010D2B0E78
:10019800F324D96E000EF420DA6EDF50826E0B0E57
:1001A8001A6E620EE82EFED71A2EFCD700D01F2A30
:1001B800E6D7640EC5EC01F0F2881C2AB6D7060013
:1001C800E9CF04F0EACF05F0E1CF06F0E2CF07F07F
:1001D800D9CF08F0DACF09F0F3CF0AF0F4CF0BF05B
:1001E800F6CF0CF0F7CF0DF0F8CF0EF0F5CF0FF0FB
:1001F800F2B2F2B417D081B209D0342A3450800A4E
:10020800440FD8A00ED0332A000E0AD0340634AEDC
:1002180008D03350800A7F0FD8A003D033063B0E96
:10022800346EF292F2A417D0340634AE03D03306FB
:100238003B0E346E80A002D0010E01D0000EFF0AE2
:10024800016E80500118FE0B0118806E0B0ED76EE0
:10025800DC0ED66EF2940FC0F5FF0EC0F8FF0DC08D
:10026800F7FF0CC0F6FF0BC0F4FF0AC0F3FF09C08C
:10027800DAFF08C0D9FF07C0E2FF06C0E1FF05C0EA
:10028800EAFF04C0E9FF03C0FBFF02C0FAFF359292
:100298001100000E156E13AE06D0126C131ED8B0E6
:1002A800132A010E156E11AE06D0106C111ED8B0AF
:1002B800112A010E151A000E176E000E166E125036
:1002C8001310D8B41CD0010E146E04D0D890123676
:1002D8001336142A13AEFAD7D8901636173612509A
:1002E800105C13501158D8A005D01250105E13504E
:1002F800115A1680D89013321232142EEDD7155099
:10030800D8B404D0166C171ED8B0172A16C010F02F
:1003180017C011F01200346A336A326A316A306ADF
:100328002F6ABC0EF66E030EF76E000EF86E00EE26
:1003380021F010EE0EF00900F5CFEEFFE550E15088
:10034800FAE13590359200010DEF00F06D966F8659
:10035800000E896EC00E926E000E8A6E9368000EB3
:100368008B6E000E946E000E8C6E000E956EF28EE3
:10037800F29CD08EF292F288F18C850ED56ED59EC5
:100388001200196E19C010F0116A000E136E0A0ED1
:10039800126E4DEC01F01050196E08D0340E186E24
:1003A800F20EE82EFED7182EFCD719061950D8B42D
:1003B8001200F4D7CF8267A7AAADED86EFAF01028E
:0203C8000480AF
:020000040020DA
:08000000FFFFFFFFFFFFFFFF00
:020000040030CA
:0E000000000C1F1EFF8181FF0FC00FE00F409C
:00000001FF
