:040000000BEF00F012
:100008003182FACF01F0FBCF02F0C1ED00F05BEFD7
:1000180001F076EC01F030500F6E106A0FBE10063A
:10002800000E126E0A0E116E19EC01F00F502C6EB4
:100038002C500A0DF350000830242B6E2F500F6EF1
:10004800106A0FBE1006000E126E0A0E116E19EC21
:1000580001F00F502E6E2E500A0DF35000082F2479
:100068002D6E000E1C6E030E1C6401D028D01C508F
:10007800010D2B0EF324D96E000EF420DA6EDF503A
:10008800176E1750010D1D0EF324D96E000EF420C3
:10009800DA6EDF50836E1C50010D270EF324D96EE3
:1000A800000EF420DA6EDF50826E0B0E176E620EB1
:1000B800E82EFED7172EFCD700D01C2AD4D781B43F
:1000C8000FD03050D8A403D02F50D8B409D0808A8C
:1000D800F298F294F28A0B0ED76EDC0ED66ED58E9D
:1000E800D5AE99D73050D8A496D72F50D8A493D747
:1000F800809A000E186E090E186401D08CD7000E75
:100108001B6E030E1B6401D016D01DC083FF1B504D
:10011800010D270EF324D96E000EF420DA6EDF509D
:10012800826E0B0E176E620EE82EFED7172EFCD7C6
:1001380000D01B2AE6D7000E196E0B0E196001D0ED
:1001480009D0340E176EF20EE82EFED7172EFCD704
:10015800192AF3D7000E826E000E1A6E0B0E1A6063
:1001680001D009D0340E176EF20EE82EFED7172EE6
:10017800FCD71A2AF3D7182ABED70600E9CF03F00E
:10018800EACF04F0E1CF05F0E2CF06F0D9CF07F0CF
:10019800DACF08F0F3CF09F0F4CF0AF0F6CF0BF07E
:1001A800F7CF0CF0F8CF0DF0F5CF0EF0F2A212D089
:1001B80081A209D0302A3050800A430FD8A009D034
:1001C8002F2A000E05D0300630AE03D02F063B0E86
:1001D800306EF292F2A40BD0300630AE03D02F0668
:1001E8003B0E306E0B0ED76EDC0ED66EF2940EC040
:1001F800F5FF0DC0F8FF0CC0F7FF0BC0F6FF0AC0F3
:10020800F4FF09C0F3FF08C0DAFF07C0D9FF06C032
:10021800E2FF05C0E1FF04C0EAFF03C0E9FF02C036
:10022800FBFF01C0FAFF31921100000E146E12AEEE
:1002380006D0116C121ED8B0122A010E146E10AE20
:1002480006D00F6C101ED8B0102A010E141A000E1A
:10025800166E000E156E11501210D8B41CD0010E77
:10026800136E04D0D89011361236132A12AEFAD76C
:10027800D8901536163611500F5C12501058D8A069
:1002880005D011500F5E1250105A1580D8901232B6
:100298001132132EEDD71450D8B404D0156C161E95
:1002A800D8B0162A15C00FF016C010F01200306A28
:1002B8002F6A2E6A2D6A2C6A2B6A220EF66E030E9E
:1002C800F76E000EF86E00EE1DF010EE0EF009004D
:1002D800F5CFEEFFE550E150FAE13190319200019F
:1002E8000DEF00F06D966F86000E896EC00E926E4F
:1002F800000E8A6E9368000E8B6E000E946E000ED0
:100308008C6E000E956EF28EF29CD08EF292F28870
:10031800F18C850ED56ED59E1200CF8267A7AAAD47
:08032800ED86EFAF0102048035
:020000040020DA
:08000000FFFFFFFFFFFFFFFF00
:020000040030CA
:0E000000000C1F1EFF8181FF0FC00FE00F409C
:00000001FF
